{
  "contractName": "FlashloanUser",
  "abi": [
    {
      "inputs": [
        {
          "internalType": "address",
          "name": "flashloan",
          "type": "address"
        },
        {
          "internalType": "uint256",
          "name": "amount",
          "type": "uint256"
        },
        {
          "internalType": "address",
          "name": "token",
          "type": "address"
        }
      ],
      "name": "startFlashloan",
      "outputs": [],
      "stateMutability": "nonpayable",
      "type": "function"
    },
    {
      "inputs": [
        {
          "internalType": "uint256",
          "name": "amount",
          "type": "uint256"
        },
        {
          "internalType": "address",
          "name": "token",
          "type": "address"
        },
        {
          "internalType": "bytes",
          "name": "data",
          "type": "bytes"
        }
      ],
      "name": "flashloanCallback",
      "outputs": [],
      "stateMutability": "nonpayable",
      "type": "function"
    }
  ],
  "bytecode": "0x608060405234801561001057600080fd5b506105f1806100206000396000f3fe608060405234801561001057600080fd5b50600436106100365760003560e01c8063a6fc41ab1461003b578063e2ecfa5d14610057575b600080fd5b61005560048036038101906100509190610379565b610073565b005b610071600480360381019061006c91906103e8565b610106565b005b8173ffffffffffffffffffffffffffffffffffffffff1663a9059cbb33856040518363ffffffff1660e01b81526004016100ae929190610459565b602060405180830381600087803b1580156100c857600080fd5b505af11580156100dc573d6000803e3d6000fd5b505050506040513d601f19601f8201168201806040525081019061010091906104ba565b50505050565b8273ffffffffffffffffffffffffffffffffffffffff16635c26993c308484604051806020016040528060008152506040518563ffffffff1660e01b8152600401610154949392919061056f565b600060405180830381600087803b15801561016e57600080fd5b505af1158015610182573d6000803e3d6000fd5b50505050505050565b6000604051905090565b600080fd5b600080fd5b6000819050919050565b6101b28161019f565b81146101bd57600080fd5b50565b6000813590506101cf816101a9565b92915050565b600073ffffffffffffffffffffffffffffffffffffffff82169050919050565b6000610200826101d5565b9050919050565b610210816101f5565b811461021b57600080fd5b50565b60008135905061022d81610207565b92915050565b600080fd5b600080fd5b6000601f19601f8301169050919050565b7f4e487b7100000000000000000000000000000000000000000000000000000000600052604160045260246000fd5b6102868261023d565b810181811067ffffffffffffffff821117156102a5576102a461024e565b5b80604052505050565b60006102b861018b565b90506102c4828261027d565b919050565b600067ffffffffffffffff8211156102e4576102e361024e565b5b6102ed8261023d565b9050602081019050919050565b82818337600083830152505050565b600061031c610317846102c9565b6102ae565b90508281526020810184848401111561033857610337610238565b5b6103438482856102fa565b509392505050565b600082601f8301126103605761035f610233565b5b8135610370848260208601610309565b91505092915050565b60008060006060848603121561039257610391610195565b5b60006103a0868287016101c0565b93505060206103b18682870161021e565b925050604084013567ffffffffffffffff8111156103d2576103d161019a565b5b6103de8682870161034b565b9150509250925092565b60008060006060848603121561040157610400610195565b5b600061040f8682870161021e565b9350506020610420868287016101c0565b92505060406104318682870161021e565b9150509250925092565b610444816101f5565b82525050565b6104538161019f565b82525050565b600060408201905061046e600083018561043b565b61047b602083018461044a565b9392505050565b60008115159050919050565b61049781610482565b81146104a257600080fd5b50565b6000815190506104b48161048e565b92915050565b6000602082840312156104d0576104cf610195565b5b60006104de848285016104a5565b91505092915050565b600081519050919050565b600082825260208201905092915050565b60005b83811015610521578082015181840152602081019050610506565b83811115610530576000848401525b50505050565b6000610541826104e7565b61054b81856104f2565b935061055b818560208601610503565b6105648161023d565b840191505092915050565b6000608082019050610584600083018761043b565b610591602083018661044a565b61059e604083018561043b565b81810360608301526105b08184610536565b90509594505050505056fea26469706673582212205b0e9be27925b4273d415494fa6d1185fdb67e3442afa4f551f00a13328eb38c64736f6c63430008080033",
  "immutableReferences": {},
  "source": "pragma solidity 0.8.8;\r\n\r\nimport '@openzeppelin/contracts/token/ERC20/IERC20.sol';\r\nimport './FlashloanProvider.sol';\r\nimport './IFlashloanUser.sol';\r\n\r\n\r\ncontract FlashloanUser is IFlashloanUser {\r\n    function startFlashloan(\r\n        address flashloan,\r\n        uint amount,\r\n        address token\r\n    )\r\n    external \r\n    {\r\n        FlashloanProvider(flashloan).executeFlashloan(\r\n            address(this),\r\n            amount,\r\n            token,\r\n            bytes('')\r\n        );\r\n    }\r\n\r\n    function flashloanCallback(\r\n        uint amount,\r\n        address token,\r\n        bytes memory data\r\n        )\r\n        override\r\n        external\r\n        {\r\n            //Do profitable stuff\r\n\r\n            //Reimbursed tokens\r\n            IERC20(token).transfer(msg.sender, amount);\r\n        }\r\n}",
  "sourcePath": "E:\\dishonored 2\\Blockchain\\Project\\blockchain\\Flashloan\\contracts\\FlashloanUser.sol",
  "compiler": {
    "name": "solc",
    "version": "0.8.8+commit.dddeac2f.Emscripten.clang"
  },
  "schemaVersion": "3.4.4",
  "updatedAt": "2022-06-18T17:07:37.496Z",
  "devdoc": {
    "kind": "dev",
    "methods": {},
    "version": 1
  },
  "userdoc": {
    "kind": "user",
    "methods": {},
    "version": 1
  }
}