{
  "contractName": "FlashloanProvider",
  "abi": [
    {
      "inputs": [
        {
          "internalType": "address[]",
          "name": "_tokens",
          "type": "address[]"
        }
      ],
      "stateMutability": "nonpayable",
      "type": "constructor"
    },
    {
      "inputs": [
        {
          "internalType": "address",
          "name": "",
          "type": "address"
        }
      ],
      "name": "tokens",
      "outputs": [
        {
          "internalType": "contract IERC20",
          "name": "",
          "type": "address"
        }
      ],
      "stateMutability": "view",
      "type": "function"
    },
    {
      "inputs": [
        {
          "internalType": "address",
          "name": "callback",
          "type": "address"
        },
        {
          "internalType": "uint256",
          "name": "amount",
          "type": "uint256"
        },
        {
          "internalType": "address",
          "name": "_token",
          "type": "address"
        },
        {
          "internalType": "bytes",
          "name": "data",
          "type": "bytes"
        }
      ],
      "name": "executeFlashloan",
      "outputs": [],
      "stateMutability": "nonpayable",
      "type": "function"
    }
  ],
  "bytecode": "0x60806040523480156200001157600080fd5b5060405162000f8838038062000f88833981810160405281019062000037919062000310565b600160008190555060005b81518110156200011a5781818151811062000062576200006162000361565b5b60200260200101516001600084848151811062000084576200008362000361565b5b602002602001015173ffffffffffffffffffffffffffffffffffffffff1673ffffffffffffffffffffffffffffffffffffffff16815260200190815260200160002060006101000a81548173ffffffffffffffffffffffffffffffffffffffff021916908373ffffffffffffffffffffffffffffffffffffffff16021790555080806200011190620003c9565b91505062000042565b505062000417565b6000604051905090565b600080fd5b600080fd5b600080fd5b6000601f19601f8301169050919050565b7f4e487b7100000000000000000000000000000000000000000000000000000000600052604160045260246000fd5b62000186826200013b565b810181811067ffffffffffffffff82111715620001a857620001a76200014c565b5b80604052505050565b6000620001bd62000122565b9050620001cb82826200017b565b919050565b600067ffffffffffffffff821115620001ee57620001ed6200014c565b5b602082029050602081019050919050565b600080fd5b600073ffffffffffffffffffffffffffffffffffffffff82169050919050565b6000620002318262000204565b9050919050565b620002438162000224565b81146200024f57600080fd5b50565b600081519050620002638162000238565b92915050565b6000620002806200027a84620001d0565b620001b1565b90508083825260208201905060208402830185811115620002a657620002a5620001ff565b5b835b81811015620002d35780620002be888262000252565b845260208401935050602081019050620002a8565b5050509392505050565b600082601f830112620002f557620002f462000136565b5b81516200030784826020860162000269565b91505092915050565b6000602082840312156200032957620003286200012c565b5b600082015167ffffffffffffffff8111156200034a576200034962000131565b5b6200035884828501620002dd565b91505092915050565b7f4e487b7100000000000000000000000000000000000000000000000000000000600052603260045260246000fd5b7f4e487b7100000000000000000000000000000000000000000000000000000000600052601160045260246000fd5b6000819050919050565b6000620003d682620003bf565b91507fffffffffffffffffffffffffffffffffffffffffffffffffffffffffffffffff8214156200040c576200040b62000390565b5b600182019050919050565b610b6180620004276000396000f3fe608060405234801561001057600080fd5b50600436106100365760003560e01c80635c26993c1461003b578063e486033914610057575b600080fd5b61005560048036038101906100509190610671565b610087565b005b610071600480360381019061006c91906106f4565b610450565b60405161007e9190610780565b60405180910390f35b600260005414156100cd576040517f08c379a00000000000000000000000000000000000000000000000000000000081526004016100c4906107f8565b60405180910390fd5b60026000819055506000600160008473ffffffffffffffffffffffffffffffffffffffff1673ffffffffffffffffffffffffffffffffffffffff16815260200190815260200160002060009054906101000a900473ffffffffffffffffffffffffffffffffffffffff16905060008173ffffffffffffffffffffffffffffffffffffffff166370a08231306040518263ffffffff1660e01b81526004016101749190610827565b60206040518083038186803b15801561018c57600080fd5b505afa1580156101a0573d6000803e3d6000fd5b505050506040513d601f19601f820116820180604052508101906101c49190610857565b9050600073ffffffffffffffffffffffffffffffffffffffff168273ffffffffffffffffffffffffffffffffffffffff161415610236576040517f08c379a000000000000000000000000000000000000000000000000000000000815260040161022d906108d0565b60405180910390fd5b84811015610279576040517f08c379a00000000000000000000000000000000000000000000000000000000081526004016102709061093c565b60405180910390fd5b8173ffffffffffffffffffffffffffffffffffffffff1663a9059cbb87876040518363ffffffff1660e01b81526004016102b492919061096b565b602060405180830381600087803b1580156102ce57600080fd5b505af11580156102e2573d6000803e3d6000fd5b505050506040513d601f19601f8201168201806040525081019061030691906109cc565b508573ffffffffffffffffffffffffffffffffffffffff1663a6fc41ab8686866040518463ffffffff1660e01b815260040161034493929190610a81565b600060405180830381600087803b15801561035e57600080fd5b505af1158015610372573d6000803e3d6000fd5b50505050808273ffffffffffffffffffffffffffffffffffffffff166370a08231306040518263ffffffff1660e01b81526004016103b09190610827565b60206040518083038186803b1580156103c857600080fd5b505afa1580156103dc573d6000803e3d6000fd5b505050506040513d601f19601f820116820180604052508101906104009190610857565b14610440576040517f08c379a000000000000000000000000000000000000000000000000000000000815260040161043790610b0b565b60405180910390fd5b5050600160008190555050505050565b60016020528060005260406000206000915054906101000a900473ffffffffffffffffffffffffffffffffffffffff1681565b6000604051905090565b600080fd5b600080fd5b600073ffffffffffffffffffffffffffffffffffffffff82169050919050565b60006104c282610497565b9050919050565b6104d2816104b7565b81146104dd57600080fd5b50565b6000813590506104ef816104c9565b92915050565b6000819050919050565b610508816104f5565b811461051357600080fd5b50565b600081359050610525816104ff565b92915050565b600080fd5b600080fd5b6000601f19601f8301169050919050565b7f4e487b7100000000000000000000000000000000000000000000000000000000600052604160045260246000fd5b61057e82610535565b810181811067ffffffffffffffff8211171561059d5761059c610546565b5b80604052505050565b60006105b0610483565b90506105bc8282610575565b919050565b600067ffffffffffffffff8211156105dc576105db610546565b5b6105e582610535565b9050602081019050919050565b82818337600083830152505050565b600061061461060f846105c1565b6105a6565b9050828152602081018484840111156106305761062f610530565b5b61063b8482856105f2565b509392505050565b600082601f8301126106585761065761052b565b5b8135610668848260208601610601565b91505092915050565b6000806000806080858703121561068b5761068a61048d565b5b6000610699878288016104e0565b94505060206106aa87828801610516565b93505060406106bb878288016104e0565b925050606085013567ffffffffffffffff8111156106dc576106db610492565b5b6106e887828801610643565b91505092959194509250565b60006020828403121561070a5761070961048d565b5b6000610718848285016104e0565b91505092915050565b6000819050919050565b600061074661074161073c84610497565b610721565b610497565b9050919050565b60006107588261072b565b9050919050565b600061076a8261074d565b9050919050565b61077a8161075f565b82525050565b60006020820190506107956000830184610771565b92915050565b600082825260208201905092915050565b7f5265656e7472616e637947756172643a207265656e7472616e742063616c6c00600082015250565b60006107e2601f8361079b565b91506107ed826107ac565b602082019050919050565b60006020820190508181036000830152610811816107d5565b9050919050565b610821816104b7565b82525050565b600060208201905061083c6000830184610818565b92915050565b600081519050610851816104ff565b92915050565b60006020828403121561086d5761086c61048d565b5b600061087b84828501610842565b91505092915050565b7f746f6b656e206e6f7420737570706f7274656400000000000000000000000000600082015250565b60006108ba60138361079b565b91506108c582610884565b602082019050919050565b600060208201905081810360008301526108e9816108ad565b9050919050565b7f616d6f756e7420746f6f20686967680000000000000000000000000000000000600082015250565b6000610926600f8361079b565b9150610931826108f0565b602082019050919050565b6000602082019050818103600083015261095581610919565b9050919050565b610965816104f5565b82525050565b60006040820190506109806000830185610818565b61098d602083018461095c565b9392505050565b60008115159050919050565b6109a981610994565b81146109b457600080fd5b50565b6000815190506109c6816109a0565b92915050565b6000602082840312156109e2576109e161048d565b5b60006109f0848285016109b7565b91505092915050565b600081519050919050565b600082825260208201905092915050565b60005b83811015610a33578082015181840152602081019050610a18565b83811115610a42576000848401525b50505050565b6000610a53826109f9565b610a5d8185610a04565b9350610a6d818560208601610a15565b610a7681610535565b840191505092915050565b6000606082019050610a96600083018661095c565b610aa36020830185610818565b8181036040830152610ab58184610a48565b9050949350505050565b7f666c6173686c6f616e206e6f74207265696d6275727365640000000000000000600082015250565b6000610af560188361079b565b9150610b0082610abf565b602082019050919050565b60006020820190508181036000830152610b2481610ae8565b905091905056fea264697066735822122052c69bf3d0ddc55037fd6c5c28b2c2135b8ee777d23787f8126044380c76041c64736f6c63430008080033",
  "immutableReferences": {},
  "source": "pragma solidity 0.8.8;\r\n\r\nimport '@openzeppelin/contracts/token/ERC20/IERC20.sol';\r\nimport '@openzeppelin/contracts/security/ReentrancyGuard.sol';\r\nimport './IFlashloanUser.sol';\r\n\r\ncontract FlashloanProvider is ReentrancyGuard {\r\n    mapping(address => IERC20) public tokens;\r\n\r\n    constructor(address[] memory _tokens)  {\r\n        for(uint i=0; i < _tokens.length; i++) {\r\n            tokens[_tokens[i]] = IERC20(_tokens[i]);\r\n        }\r\n    }\r\n\r\n    function executeFlashloan(\r\n        address callback,\r\n        uint amount,\r\n        address _token,\r\n        bytes memory data\r\n    )\r\n    nonReentrant\r\n    external\r\n    {\r\n        IERC20 token = tokens[_token];\r\n        uint originalBalance = token.balanceOf(address(this));\r\n        require(address(token) != address(0), 'token not supported');\r\n        require(originalBalance >= amount, 'amount too high');\r\n        token.transfer(callback, amount);\r\n        IFlashloanUser(callback).flashloanCallback(amount, _token, data);\r\n        require(\r\n            token.balanceOf(address(this)) == originalBalance,\r\n            'flashloan not reimbursed'\r\n        );\r\n    }\r\n}",
  "sourcePath": "E:\\dishonored 2\\Blockchain\\Project\\blockchain\\Flashloan\\contracts\\FlashloanProvider.sol",
  "compiler": {
    "name": "solc",
    "version": "0.8.8+commit.dddeac2f.Emscripten.clang"
  },
  "schemaVersion": "3.4.4",
  "updatedAt": "2022-06-18T17:07:37.473Z",
  "devdoc": {
    "kind": "dev",
    "methods": {},
    "version": 1
  },
  "userdoc": {
    "kind": "user",
    "methods": {},
    "version": 1
  }
}